:030000000203F404
:03000B000203DE0F
:03002B0002039E2F
:10002E00C0E0C0D0C000C001C002E4F540F541F50B
:10003E0042F543F5447A20E53BA2E779047838E6A9
:10004E0033F608D9FA79057840E636D4F608D9F9A8
:10005E00DAE5D002D001D000D0D0D0E022C0E0C08E
:10006E00D0C000C001C002E4F540F541F542F543B1
:10007E00F5447A20E53BA2E779047838E633F608B2
:10008E00D9FA79057840C0D0E6243320E70224D08F
:10009E0020E30224FDD0D033F608D9EADAD6D00216
:1000AE00D001D000D0D0D0E022C0E0C0D0C000C07F
:1000BE0001C0027A207905C37844E613C0D030E738
:1000CE000224D030E30224FDF618D0D0D9EC790406
:1000DE00783BE613F618D9FADADBD002D001D0005D
:1000EE00D0D0D0E022C0E0C0D0E538253CF538E5D0
:1000FE0039353DF539E53A353EF53AE53B353FF5CF
:10010E003BD0D0D0E022C0E0C0D0C3E538953CF55E
:10011E0038E539953DF539E53A953EF53AE53B95A5
:10012E003FF53BD0D0D0E022C0E0C0D0C3E538953B
:10013E003CE539953DE53A953EE53B953F9200D03D
:10014E00D0D0E022C0E0C0D0C3E53C9538E53D9567
:10015E0039E53E953AE53F953B9200D0D0D0E0226E
:10016E00C0E0C0D0C200C3E53C95387014E53D95A3
:10017E0039700EE53E953A7008E53F953B7002D218
:10018E0000D0D0D0E02212016E20000302015222D4
:10019E0012016E20000302013622C0E0C0F0C0D072
:1001AE00C000C001C002C003E538853CF0A4F8A928
:1001BE00F0E539853CF0A429F9E435F0FAE5388507
:1001CE003DF0A429F9E5F03AFAE433FBE53A853C33
:1001DE00F0A42AFAE5F03BFBE539853DF0A42AFAB6
:1001EE00E5F03BFBE538853EF0A42AFAE5F03BFB53
:1001FE00E53B853CF0A42BFBE53A853DF0A42BFBBB
:10020E00E539853EF0A42BFBE538853FF0A42BFBAA
:10021E008B3B8A3A89398838D003D002D001D0007E
:10022E00D0D0D0F0D0E022C0E0C0D0C000C001C01D
:10023E0002C003C0047C20E4F8F9FAFBC3E53833AE
:10024E00F538E53933F539E53A33F53AE53B33F52B
:10025E003BE833F8E933F9EA33FAEB33FBC3E895BD
:10026E003CE9953DEA953EEB953F4013E8953CF809
:10027E00E9953DF9EA953EFAEB953FFB433801DCF3
:10028E00BBD004D003D002D001D000D0D0D0E02219
:10029E007895000000000000D8F822F5D9C2DA00E7
:1002AE0000D2D9000000000000C2D902029EF5D98A
:1002BE00D2DA0000D2D9000000000000C2D902023A
:1002CE009E12029ED9FB74C01202A974531202BC74
:1002DE0074741202BC74611202BC74741202BC7487
:1002EE00651202BC74201202BCE537540F44301262
:1002FE0002BC2212029ED9FB74801202A974531200
:10030E0002BC74611202BC74661202BC74651202E5
:10031E00BC74201202BC74741202BC746F1202BC44
:10032E0074201202BC74471202BC74721202BC74A6
:10033E00611202BC74621202BC74201202BC221240
:10034E00029ED9FB74801202A974201202BC742082
:10035E001202BC74201202BC74201202BC74201251
:10036E0002BC74201202BC74201202BC7420120251
:10037E00BC74201202BC74201202BC74201202BC87
:06038E0074201202BC22E3
:10039400C0F9A4B0999282F88090C0D0C0E0C08225
:1003A400C083C2CFB281E53104F531B46420753124
:1003B40000E53204F532E53304D4F533B4600F7547
:1003C4003300E53404D4F534B46003753400120406
:1003D40094D083D082D0E0D0D032B280758CFD75B9
:1003E4008A4A327A5A79FA78FAD8FED9FADAF622AF
:1003F40075817F75E800759500759E0075F8007528
:100404003600753200753300753400753700D2DB61
:10041400D2DCC2D912029E75DAFFC2D8740C120261
:10042400A974381202A974011202A9759A03D28020
:10043400439A38439DFF439A081204B6758901C252
:100444008CC28D758CFD758A4AD28CD2A975C80070
:10045400C2CAC2CF75CB9375CA7FD2CAD2AD75302A
:1004640000753100D2AFB2E8C2B7C283780112047A
:10047400BF78801204BFE95403F539F59578551215
:1004840004BF89E88938D2831203E712051180D6A4
:10049400900394E533540F93F593E533C4540F93C9
:1004A400F594E534540F93F58EE534C4540F93F565
:1004B4008F22439A06539AFEC2822279007A08E870
:1004C40033F89281D282A280E933F9C282DAF0222F
:1004D400753CF4753D01753E00753F001201A87529
:1004E4003C64753D00753E00753F001201A8753CE3
:1004F400FF753D03753E00753F00120235753CA43F
:10050400753D6A753E00753F00120114221202CF38
:10051400E537B4001875320075350020F92F30F92D
:10052400FD75320075370112034D02046AB40124CB
:100534007535647496C39536500675370202046A9D
:10054400743CC39532500675370502046A20FA03D9
:1005540075370522B40210753514743CC3953250B6
:10056400EC75370302046AB40313753564753200FD
:1005740074DCC3953650D675370402046AB404108B
:10058400753514742DC3953250C375370402046A4B
:10059400B405BA753500E536C3943C50B0753700E0
:0705A40012030102046A22A8
:00000001FF
